:1000000002002A00000080FB120033B90003020046
:100010002478419000367A1DBA00028007E493A349
:10002000F608DAF912035412000375D00075816FD7
:100030000200087901220101434332353330206C3C
:100040006962726172792072656164790D0A000BD0
:10005000D5D80BD083D082CEC0E0EFC0E0C02078EE
:1000600021E608C0E0DEFAE473C0D074202FD0D0BF
:10007000F8D0E0F618DFFAD020D0E0FFD0E0FE2282
:10008000C021C022740F594430F5B6E5B4A2E75040
:10009000FAE5BAF521E5BBFA7B00E4CAFB7522005C
:1000A000EA4521FAEB4522FBD022D02122C021C013
:1000B00022E5BCF521E5BDF87900E4C8F975220018
:1000C000E84521FAE94522FBD022D02122794102DC
:1000D000012BE960051460068008EA42FD22EA422D
:1000E000FE22EA42FF22E96005146007800AEAF472
:1000F00052FD22EAF452FE22EAF452FF22E96005A0
:10010000146007800AEAF4528022EAF4529022EA4C
:10011000F452A022E96005146007800AEAF452F361
:1001200022EAF452F422EAF452F522EEC0E0E9FEAB
:1001300074012EF8E6FAEEF8E6F912011474012EB5
:10014000F8E6FAEEF8E6F91200FD74012EF8E6FA88
:10015000EEF8E6F91200E6D0E0FE22EEC0E0EFC0D5
:10016000E0E9FEEAFF601C74012EF8E6FAEEF8E61C
:10017000F91200FD74012EF8E6FAEEF8E6F9120025
:10018000D2800D74012EF8E6FAEEF8E6F91200E6D8
:10019000D0E0FFD0E0FE22EEC0E0EFC0E0E9FFEAF1
:1001A000FE74012FF8E6C0E0EEF8D0E0C666F67403
:1001B000012FF8EEF9E756FAEFF912015BD0E0FFF4
:1001C000D0E0FE229061807400F09061817400F0B4
:1001D0009061827400F09061897460F090618A741B
:1001E00000F090618B7401F0906194747FF0E7905F
:1001F000618FF0740129F8E6906190F0906191743C
:1002000094F09061957400F090619674F8F09061AC
:10021000977414F09061A87485F09061A97414F03B
:100220009061AB743FF09061AC745AF09061AD7422
:100230000BF09061AE742BF09061AF7413F090618D
:10024000B07411F09061B17411F09061B27415F056
:100250009061B374FEF09061B47431F02275E1EDF9
:1002600075E1ED2275E1EE75E1EE22EEC0E0E9FE0A
:1002700012029D53BEFCEEF91201C475BF0075E970
:100280000090619B7400F090619C7400F075E1EF48
:1002900012025D12026475E1E3D0E0FE2253C6BF94
:1002A000E59EA2E640FA2275E40075AF0075E20013
:1002B00075E30075E40122C021C022E5E2F521E5E5
:1002C000E3F87900E4C8F9752200E84521FAE94528
:1002D00022FBD022D0212274041200538A218B22C7
:1002E0001202B78A238B24AE23AF241202B78A23CB
:1002F0008B24E523C39EF8E5249FF9C3E89521E903
:10030000952240E77F0402006953F1FE43F30C435A
:10031000FD0853FDFB43868075C402740129F8E68D
:10032000541FF5C5E7F5C243864043C480C2E922A5
:1003300089C1A2E950FCC2E922EEC0E0E9FE800BCF
:10034000EEF8E6F912033074012EFEEEF8E670F0D6
:10035000D0E0FE220581E581A88176001200CD79EA
:100360005C1203091202A7795A12026B7943120335
:10037000391200AD8A218B22AE21AF22EE4F700DD3
:1003800079001200808A218B22AE21AF22E581AA5A
:10039000817941120197EE54FFF8EF540FF9E824E8
:0B03A000E0FAE9342EFB1202D780E2E5
:00002A01D5
:00000001FF
